:020000040800F2
:10000000F80500204501000811230008E91E00083A
:100010000D2300088D010008FD27000800000000E6
:10002000000000000000000000000000DD270008C4
:100030009101000800000000D9270008E12700080E
:100040005F0100085F0100085F0100085F01000810
:100050005F0100085F0100085F0100085F01000800
:100060005F0100085F0100085F0100085F010008F0
:100070005F0100085F0100085F0100085F010008E0
:100080005F0100085F0100085F0100085F010008D0
:100090005F0100085F0100085F0100085F010008C0
:1000A0005F0100085F0100085F0100085F010008B0
:1000B0005F0100085F0100085F0100085F010008A0
:1000C0005F0100085F0100085F0100085F01000890
:1000D0005F0100085F0100085F0100085F01000880
:1000E0005F0100085F0100085F0100085F01000870
:1000F0005F0100085F0100085F0100085F01000860
:100100005F0100085F0100085F0100085F0100084F
:100110005F0100085F0100085F0100085F0100083F
:100120005F0100085F0100085F0100085F0100082F
:10013000DFF80CD000F018F800480047212800082C
:10014000F80500200648804706480047FEE7FEE71E
:10015000FEE7FEE7FEE7FEE7FEE7FEE7FEE7FEE777
:10016000E527000831010008064C074D06E0E0686D
:1001700040F0010394E8070098471034AC42F6D3EE
:10018000FFF7DAFF702F0008902F0008FEE700004D
:1001900070470000EFF3108072B600BFFEE700006A
:1001A00010B581B00022009290F82420012A03D1DA
:1001B0000221084601B010BD4B680122062B80F8D1
:1001C000242015D8026803EB8303A3F1050E1F2337
:1001D000D2F834C003FA0EF40B682CEA040C03FACC
:1001E0000EF444EA0C045463092B17D937E000BF1E
:1001F00002680C2B20D803EB8303A3F123041F23F5
:10020000D2F830C003FA04FE0B682CEA0E0C03FA95
:1002100004F444EA0C041463092B20D8D2F810C06B
:1002200003EB4303072489689C402CEA04049940AB
:1002300021431161002136E003EB8303A3F1410464
:100240001F23D2F82CC003FA04FE0B682CEA0E0C14
:1002500003FA04F444EA0C04D462092BDED903EB5C
:100260004304D2F80CC0A4F11E0E0724896804FAD6
:100270000EF42CEA040401FA0EF1214323F00104E8
:10028000102CD1600ED142F20841C4F20101A1F15B
:100290000804A2420ED0816A41F02001816201214E
:1002A00001E000BF0021002280F82420084601B0B0
:1002B00010BD00BF0A68120230D40A68102B42F445
:1002C00000020A602CD140F20C01C2F20001096860
:1002D0004DF68362C4F21B32A1FB0212910C01EBBA
:1002E0008101490000910099E1B100990139009123
:1002F0000099C9B10099013900910099B1B10099F3
:1003000001390091009999B1009901390091009942
:1003100000294FF00001E8D1C5E700BF0021C2E786
:100320000021C0E70021BEE70021BCE70021BAE7B9
:100330000021B8E7B0B5002800F0B2800446806A1A
:1003400020B121688868C0070BD114E00020E0626A
:1003500084F82400204600F0A5F821688868C007CA
:1003600009D0886820F00100886000F0E9F9216870
:100370008A68D20730D1A06AC00644D4A06A41F28C
:10038000021290430230A062E36981F0804080F461
:100390009E3083F44022104308BF4FF40023D4E979
:1003A000010243EA000C531EB3FA83F35D091346BE
:1003B000B2F5807F18BF2B02207D257B01284CEAF7
:1003C000450030D135B3A56A45F02005A562E56A40
:1003D00045F00105E56226E0054602E08868C007B1
:1003E000C9D000F0ADF9401B21680328F6D3886816
:1003F000C007F3D0A06A40F01000A062E06A40F0AD
:100400000100E062A06AA06A40F01000A062012032
:10041000B0BD00BFD4F818C04EF60005CFF6FF758A
:1004200005EB4C352B434D68B2F5807F25F46945CB
:1004300043EA05034B608B684FF2FD75CFF6E1751B
:1004400003EA050343EA00038B6001D0012A07D1C8
:1004500022690023CFF6F07303EB025201E000BFE4
:100460000022CB6A23F470031A43CA62896840F6FB
:10047000FE62CFF61F721140814207D10020E06278
:10048000A16A012262F30101A162B0BDA06A40F03D
:10049000100020F00200A062E06A40F00100E0627B
:1004A0000120B0BD80B586B0014640F60000C4F220
:1004B0000100096800F5E05291424FF00001CDE9DA
:1004C000041101D006B080BD41F21801C4F202014E
:1004D0000A6842F400720A600A6802F4007201922B
:1004E000019A0A6842F004020A60096801F00401F6
:1004F00001910199042102910321039102A900F0C5
:1005000017F806B080BD0000B0B5044600F018F939
:10051000054640F20400C2F200000078611C18BFDA
:10052000044400BF00F00CF9401BA042FAD3B0BD58
:100530002DE9F04F83B041F60043C4F201030E6889
:1005400006229842019008BF0522002E009200F07A
:10055000ED80019840F20C45A0F18043A3F584336F
:100560004FEAB32740F200404FF6FF73C4F2010593
:10057000C4F20100009A4FF0000E4FF0010CC1F2DE
:1005800010034FF0000A4FF0000B4FF00F08052F3B
:1005900038BF3A46009208E00E680AF1010A36FABE
:1005A0000AF20EF1040E00F0C1800CFA0AF916EA04
:1005B000090FF1D04E689E4212DC122E56D8DFE8A9
:1005C00006F0350B45495555555555555555555515
:1005D0005555554D510000BFD1F80CB046E000BF55
:1005E0004FF6FF72C1F2210296420FDC0022C1F2E7
:1005F000110296421AD00022C1F21202964215D080
:100600000022C1F22102964210D02FE00022C1F256
:10061000220296420AD00022C1F23102964205D04F
:100620000022C1F23202964220D100BF8E684EB144
:10063000012E019A14BFC2F81490C2F810904FF026
:10064000080B13E04FF0040B10E000BFCF6807F178
:10065000080B0BE04FF0000B08E000BFCF6807F17C
:10066000040B03E0CF6807F10C0B00BF7446BAF12E
:10067000080F28BF203C019F28BF04373E6808FAB6
:1006800004F226EA02020BFA04F632433A60CA790F
:10069000D2067FF581AF41F21807C4F202073A682B
:1006A0004FF6084C42F001023A603A68CFF6FF7C00
:1006B00002F001020292029A2AF00302024452F866
:1006C0000C700EF00C0608FA06F4A743009C04FA1E
:1006D00006F6374342F80C70D1F804C05FEACC321A
:1006E000026854BF22EA090642EA09065FEA8C3230
:1006F0000660426854BF22EA090642EA09065FEA38
:10070000CC224660826854BF22EA090642EA090602
:100710005FEA8C2286604FF0010C2A6854BF22EAFF
:10072000090642EA09062E6036E700BF03B0BDE8BD
:10073000F08F0000002A08BF090401617047000023
:1007400040F2F410C2F200000068704770B5B8B310
:10075000044690F83D0028B9002084F83C0020466B
:1007600000F0B0F8242084F83D002068016821F0F2
:1007700001010160016841F400410160016821F458
:100780000041016000F0E6FA48F28041C0F21E012B
:1007900040F60013D4F804E088424FF00001C0F2A4
:1007A0003D0348F2A16C4FF0000238BF012198428E
:1007B000C0F2010C38BF0122E64538BF0A460AB133
:1007C000012070BD4DF68361C4F21B31A0FB011204
:1007D0002168950C4B684FF4967623F03F0343EA6B
:1007E0009243754344F6D3564B60C1F262060B6ADE
:1007F000A5FB0656B50923F03F03E64538BF950C27
:100800006A1C1A430A62CA6948F2A0664CF6FF7372
:10081000C0F20106B64522EA03020BD801384FEABE
:100820004E03B0FBF3F001306FF31F30042898BF84
:1008300004201EE0A368013863B119230EFB03F303
:10084000B0FBF3F001306FF31F3078B100F580405A
:1008500008E000BF0EEB4E03B0FBF3F001306FF386
:100860001F3028B100F5004003E000BF012000E088
:1008700001201043C8610868D4E9072320F0C000B4
:10088000104318430860886848F2FF3204F10C06F0
:1008900090434CCE18431043A5698860C86820F087
:1008A000FF0030432843C860086840F0010008603A
:1008B00000202021206484F83D10206384F83E004D
:1008C00070BD000010B586B0006845F20042C4F269
:1008D000000200219042049102D006B010BD00BF7A
:1008E00041F21804C4F20204206802A940F0080092
:1008F0002060206800F00800019001984FF44070DB
:100900000290122003900320059040F60040C4F2AC
:100910000100FFF70DFE0420C4F20100016841F060
:10092000E06141F002010160606840F40010606025
:10093000606800F400100190019806B010BD00003E
:1009400040F2040040F2F411C2F20000C2F20001D1
:1009500000780A68104408607047000080B542F2D1
:100960000000C4F20200016841F0100101600320A0
:1009700000F07AF80F2000F005F800F027F80020CA
:1009800080BD000070B540F20406C2F2000640F2DD
:100990000C013278C2F200014FF47A730968B3FB9C
:1009A000F2F20446B1FBF2F1084600F0D5FB0F2C41
:1009B0004FF0010508D838B94FF0FF30214600222A
:1009C000002500F025F87460284670BD82B041F221
:1009D0001800C4F202000168022241F00101016026
:1009E000016801F0010101910199416841F08051D4
:1009F0004160406800F08050009000980420C4F2EC
:100A00000100016862F31A61016002B070470000E2
:100A100010B54EF60C5CCEF2000CDCF80030C3F3DF
:100A2000022E8EF00704042C28BF0424BEF1030319
:100A30004FF0FF3E0EFA04F438BF0023A143994063
:100A40000EFA03F39A43114300F00F02043A624492
:100A500009010C3200F16043B0F1FF3FC8BF03F55C
:100A60006442117010BD00004EF60C51CEF2000130
:100A70000A684FF6FF031A4060F30A2242F08060D2
:100A800040F0FD70086070472DE9F04182B00446E7
:100A9000007841F21C06C007C4F202064AD0306852
:100AA00010F0805808D1306840F0805030603068D5
:100AB00000F080500190019847F20007C4F200074F
:100AC0003868C00512D4386840F480703860FFF789
:100AD00037FE05463868C00508D4FFF731FE401BD5
:100AE0006428F7D9032002B0BDE8F081706810F4E3
:100AF000407012D0616801F4407188420DD0706876
:100B000040F24042C4F24222012320F440711360BB
:100B10000023C007136071602AD17068616820F4F7
:100B200040700843B8F1000F706003D1306820F0C6
:100B3000805030602068810707D556F8181CA268DD
:100B400021F44041114346F8181CC00604D400208B
:100B500002B0BDE8F08100BF56F8180C616920F4BE
:100B60008000084346F8180C002002B0BDE8F08170
:100B7000FFF7E6FD054641F2883700BF7068800741
:100B8000CBD4FFF7DDFD401BB8424FF00300F5D991
:100B9000EBE700002DE9F04381B0002800F08580EC
:100BA00042F20008C4F202080446D8F800000D46DC
:100BB00000F0070088420CD2D8F8000020F00700AF
:100BC0002843C8F80000D8F8000000F00700A84249
:100BD0006BD1206841F204098107C4F2020917D5DC
:100BE000410705D5D9F8001041F4E061C9F80010BB
:100BF000010705D5D9F8001041F46051C9F800107B
:100C0000D9F80010A26821F0F0011143C9F80010D2
:100C1000C00741D1D8F8000000F00700A8420CD965
:100C2000D8F8000020F007002843C8F80000D8F8E2
:100C3000000000F00700A84237D12068410707D51F
:100C4000D9F80010E26821F4E0611143C9F80010FE
:100C5000000708D5D9F80000216920F4605040EA67
:100C6000C100C9F80000D9F8002002F00C000828E3
:100C700041F20020C0F27A0050D142F65E73C2F316
:100C80008341C0F60003595CD2033BD440F6001008
:100C9000C0F23D00484341E0606802280AD00128C4
:100CA0002AD159F8041C890308D4012001B0BDE8F9
:100CB000F08300BF59F8041C8901F6D5D9F800105B
:100CC00021F003010843C9F80000FFF739FD06468B
:100CD00041F28837D9F80000616800F00C00B0EBF1
:100CE000810F97D0FFF72CFD801BB842F2D903206B
:100CF00001B0BDE8F08300BF59F8041C8907D4D5C2
:100D0000DCE700BFD9F8002042F65413C2F340429A
:100D1000C0F600039A5C4843B0FBF2F0D9F800102B
:100D200042F65612C1F30311C0F60002515C40F2C4
:100D30000C0220FA01F140F20800C2F20000006843
:100D4000C2F200021160FFF71DFE002001B0BDE8F5
:100D5000F083000040F20C0041F20401C2F20000F6
:100D6000C4F202010068096842F66612C1F302216A
:100D7000C0F60002515CC8407047000040F20C0011
:100D800041F20401C2F20000C4F2020100680968E5
:100D900042F66612C1F3C221C0F60002515CC8409F
:100DA000704700002DE9F04182B0002868D0044669
:100DB000007841F20006C007C4F2020625D0706830
:100DC00000F00C0004281BD0706800F00C0008280C
:100DD00002D17068C00313D46068002800F06881F5
:100DE000B0F5A02F00F07C81B0F5803F00F07C8151
:100DF000306820F480303060306820F4802076E164
:100E00003068800301D56068D0B32078800718D59A
:100E1000706810F00C0F07D0706800F00C00082804
:100E20006ED17068C0036BD43068800702D520692A
:100E3000012825D13068616920F0F80040EAC1003E
:100E40003060207800071FD42078400732D4E5694D
:100E500095B1706800F00C00082840F08F80012DDB
:100E60000ED07068216A00F480328A4208D1616A2B
:100E700000F47010884203D1002002B0BDE8F08178
:100E8000012002B0BDE8F081A069002862D00020F6
:100E9000C4F242200121C0F88014FFF751FC05463E
:100EA000706A800700F18C80FFF74AFC401B022823
:100EB000F6D92AE1F06910F0805808D1F06940F0C5
:100EC0008050F061F06900F080500090009847F287
:100ED0000007C4F200073868C00529D4386840F418
:100EE00080703860FFF72CFC054600BF3868C005ED
:100EF0001ED4FFF725FC401B6428F7D905E100BF8D
:100F00002069002840F20000C4F2422000F08280F4
:100F100001210160FFF714FC054600BF306880071F
:100F20003FF588AFFFF70CFC401B0228F6D9ECE038
:100F3000E068002800F08080052800F097800128F4
:100F400000F09880306A20F001003062306A20F0B2
:100F5000040092E00020C4F242200021C0F8801476
:100F6000FFF7EEFB054600BF706A80077FF56CAFA8
:100F7000FFF7E6FB401B0228F6D9C6E00027C4F2C3
:100F8000422700203866FFF7DBFB022D05460BD118
:100F90003068800140F1BE80FFF7D2FB401B022881
:100FA0004FF00300F4D968E7306880017FF564AF43
:100FB000FFF7C6FB401B02284FF00300F4D95CE7A3
:100FC00040F20C00C2F20000006844F6D351C1F2B6
:100FD0006201A0FB0101480A019000BF00BF019817
:100FE000411E002801913FF42FAF00BF0198411E20
:100FF000002801913FF428AF00BF0198411E00284E
:1010000001913FF421AF00BF0198411E00280191DA
:10101000E4D119E700210160FFF792FB054600BF0C
:10102000306880077FF50DAFFFF78AFB401B022871
:101030004FF00300F4D920E7306A20F0010030625D
:10104000306A20F004003062FFF77AFB054641F277
:10105000883700BF306A800720D5FFF771FB401B3F
:10106000B8424FF00300F5D907E700BF306A40F0FF
:1010700004003062306A40F001003062FFF760FB2C
:10108000054641F2883700BF306A800706D4FFF773
:1010900057FB401BB842F7D937E000BFB8F1000F4B
:1010A0007FF4D5AEF06920F08050F061CFE600BF4C
:1010B000306820F480303060306820F48020306068
:1010C000FFF73EFB054600BF306880037FF59DAE0D
:1010D000FFF736FB401B64284FF00300F4D9CCE641
:1010E000306840F480203060306840F480303060F8
:1010F000FFF726FB054600BF306880033FF585AE4D
:10110000FFF71EFB401B6428F6D9032002B0BDE8A0
:10111000F08100BF206AB0F5803F05D17168A268F8
:1011200021F40031114371607168626A21F4741115
:1011300010430843706001203866FFF701FB044646
:10114000306880013FF598AEFFF7FAFA001B0228DD
:101150004FF00300F4D990E6411E0020B0EB116F70
:101160001CBF012070474EF21002CEF20002516007
:101170004EF62351CEF20001F0230B700721906050
:1011800011607047B0B590F83C20012A04BF0220DE
:10119000B0BD01F108053CCDD1E900CE23F47C536C
:1011A00022F470521A432EF4F0431A432CF4E04315
:1011B0001A4324F4C0431A432A43C96922F48042E3
:1011C000036811435964002180F83C100846B0BD03
:1011D00010B590F83C20012A4FF002023FD080F871
:1011E0003D200268D2F804E0D2F808C00C682EF066
:1011F0007003234340F6FF34C4F20004A24253605C
:1012000010DCB2F1804F1FD040F20043C4F2000363
:101210009A4219D040F60003C4F200039A4213D058
:1012200017E000BF40F60043C4F200039A420BD01F
:1012300043F20043C4F201039A4205D042F6004350
:10124000C4F201039A4204D149682CF08003194387
:1012500091600121002280F83D1080F83C2010466A
:1012600010BD0000002804BF0120704710B50446DF
:1012700090F83D0028B9002084F83C00204600F09A
:1012800085F8022084F83D00206840F6FF330268AC
:10129000C4F2000343F2004C9842C4F2010C21DC7A
:1012A000B0F1804F2CD040F20041C4F200018842DE
:1012B00026D040F60001C4F20001884220D09842B6
:1012C00024DCB0F1804F2FD040F20041C4F2000185
:1012D000884229D040F60001C4F20001884223D0A0
:1012E00026E000BF40F60041C4F20001884207D06A
:1012F000604505D042F60041C4F201018842DED1CA
:10130000A16822F070020A439842DADD40F60041FB
:10131000C4F20001884207D0604505D042F6004182
:10132000C4F20101884203D1216922F440720A43C8
:10133000A36922F08001D4F804E0E2681943604513
:101340000160C262C0F828E005D042F60041C4F254
:101350000101884201D161690163012141610020DD
:1013600084F8461084F83E1084F83F1084F840104A
:1013700084F8411084F8421084F8431084F8441033
:1013800084F8451084F83D1010BD000081B000685D
:1013900042F60041C4F20101884201D001B0704719
:1013A00041F21800C4F20200016841F400610160DA
:1013B000006800F400600090009801B070470000E1
:1013C00090F83D1001291CBF01207047022180F8D0
:1013D0003D10006840F6FF32C168C4F2000290423E
:1013E00041F00101C1600FDCB0F1804F1ED040F22E
:1013F0000041C4F20001884218D040F60001C4F256
:101400000001884212D018E040F60041C4F2000109
:1014100088420BD043F20041C4F20101884205D05A
:1014200042F60041C4F20101884206D1816801F010
:101430000701062904BF00207047016841F001013F
:10144000016000207047000080B590F83C20012A20
:101450004FF0020200F0BF8080F83D20D0F800C0BD
:101460004FF67772DCF8083023EA0202CCF8082045
:101470000B683F2B1CDD5F2B20DD602B50D0B3F5BC
:10148000005F6DD0702B40F0A080D1E901E3C96806
:10149000DCF8082043EA0E0322F47F4243EA0121EC
:1014A0001143CCF80810DCF8081041F077018AE00D
:1014B0001F2B29DC63B3102B2AD086E0402B63D08E
:1014C000502B40F08280D1F804E0C968DCF820306D
:1014D000DCF8202022F00102CCF82020DCF81820D3
:1014E00022F0F00242EA011123F00A0242EA0E025F
:1014F000CCF81810CCF82020DCF8081041F0570187
:1015000021F020015FE000BF202B01D0302B5CD107
:10151000DCF8081021F07001194341F0070152E096
:10152000D1F804E0C968DCF8203023F01003CCF8CF
:101530002030DCF81830DCF8202023F4704322F04F
:10154000A00243EA013142EA0E12CCF81810CCF89E
:101550002020DCF8081041F0670121F0100132E092
:10156000D1E901E3C968DCF8082043EA0E0322F45C
:101570007F4243EA01211143CCF80810DCF808103F
:1015800041F480411FE000BFD1F804E0C968DCF8F5
:101590002030DCF8202022F00102CCF82020DCF8FA
:1015A000182022F0F00242EA011123F00A0242EA76
:1015B0000E02CCF81810CCF82020DCF8081041F00E
:1015C000470121F03001CCF808100121002280F8F9
:1015D0003D1080F83C20104680BD0000002804BF6C
:1015E000012070472DE9F04F81B0044690F83D008E
:1015F0008B4628B9002084F83C00204600F0B0F863
:10160000022084F83D00206844F20702816840F619
:10161000FF33914381600268C4F2000343F2004C3F
:101620009842C4F2010C21DCB0F1804F2CD040F282
:101630000041C4F20001884226D040F60001C4F205
:101640000001884220D0984224DCB0F1804F2FD096
:1016500040F20041C4F20001884229D040F6000166
:10166000C4F20001884223D026E000BF40F60041CA
:10167000C4F20001884207D0604505D042F600411F
:10168000C4F201018842DED1A16822F070020A434F
:101690009842DADD40F60041C4F20001884207D0EA
:1016A000604505D042F60041C4F20101884203D1F1
:1016B000216922F440720A43A36922F08001626822
:1016C000E568194360450160C562826205D042F653
:1016D0000041C4F20101884201D161690163012125
:1016E000416182688369D0F820C0DBE9005EDBE9F4
:1016F000027845EA020ADBF818504FF6FF7923EA30
:10170000090347EA05254FF6FC47BD43DBE90776A9
:1017100043EA0803DBF810202B4343EA072343EA9C
:1017200002122CF02203DBF8147043EA0E0342EAA3
:10173000063243EA0713C0F808A08261036284F806
:10174000461084F83E1084F83F1084F8421084F864
:10175000431084F83D10002001B0BDE8F08F000078
:1017600080B586B0006840F20041C4F200018842B2
:101770004FF00001CDE90411CDE902111AD0B0F10A
:10178000804F39D141F21800C4F20200416841F0A3
:1017900001014160416801F0010101910199016875
:1017A00041F004010160006800F00400019001981C
:1017B000032016E041F21800C4F20200416841F033
:1017C00002014160416801F0020101910199016843
:1017D00041F004010160006800F0040001900198EC
:1017E000C02002900020CDE9030040F60000C4F2C2
:1017F000010002A9FEF79CFE06B080BD2DE9F04174
:1018000090F83C30012B04BF0220BDE8F0814FEA84
:10181000B202032A00F21381DFE802F002468ED8FA
:10182000036843F200461A6AC4F2010622F001027C
:101830001A621D6A1A465C6852F818EF8F68D1F870
:1018400000C025F00205B34245EA070505D042F67F
:101850000047C4F20107BB4205D1CF6825F00C0553
:1018600027F004073D43B34205D042F60046C4F2D8
:101870000106B34205D1D1E9056724F4407434432D
:101880003C432EF0730747EA0C075C609F614F688A
:1018900009695F631D629F6947F008079F619F693F
:1018A00027F004079F61C7E0036843F200481A6A03
:1018B000C4F2010822F010021A621D6A1A465C681E
:1018C00052F818EF8F68D1F800C025F02005434585
:1018D00045EA071505D042F60047C4F20107BB42AE
:1018E00007D1CF686FF0400625F0C00506EA07165D
:1018F0003543434505D042F60046C4F20106B342E3
:1019000007D1D1E9056724F4406444EA860444EA37
:1019100087042EF4E64747EA0C275C609F614F6816
:1019200009699F631D629F6947F400679F619F6912
:1019300027F480679F617EE0036843F200481A6ADB
:10194000C4F2010822F480721A621D6A1A465C68A9
:1019500052F81CCF8F68D1F800E025F4007543459C
:1019600045EA072505D042F60047C4F20107BB420D
:1019700008D1CF6840F2FF463F0225F4406527EAD0
:1019800006063543434505D042F60046C4F201063B
:10199000B34207D1D1E9056724F4405444EA061460
:1019A00044EA07142CF0730747EA0E075C60DF6116
:1019B0004F680969DF631D62DF6947F00807DF616F
:1019C000DF6927F00407DF6136E000BF036843F2F8
:1019D00000471A6AC4F2010722F480521A621A46BA
:1019E000D3F820C05D6852F81C4FD1F800E08E6833
:1019F000BB4205D042F60047C4F20107BB4204D106
:101A00004F6925F4804545EA87152CF4005747EACD
:101A1000063724F4E64646EA0E265D60DE614E682F
:101A200009691E641F62DF6947F40067DF61DF69CF
:101A300027F48067DF6109021368194311600021F0
:101A400080F83C100846BDE8F0810000002804BF83
:101A50000120704710B5044690F83D0028B90020D9
:101A600084F83C00204600F085F8022084F83D0010
:101A7000206840F6FF330268C4F2000343F2004CD2
:101A80009842C4F2010C21DCB0F1804F2CD040F21E
:101A90000041C4F20001884226D040F60001C4F2A1
:101AA0000001884220D0984224DCB0F1804F2FD032
:101AB00040F20041C4F20001884229D040F6000102
:101AC000C4F20001884223D026E000BF40F6004166
:101AD000C4F20001884207D0604505D042F60041BB
:101AE000C4F201018842DED1A16822F070020A43EB
:101AF0009842DADD40F60041C4F20001884207D086
:101B0000604505D042F60041C4F20101884203D18C
:101B1000216922F440720A43A36922F08001D4F8BB
:101B200004E0E268194360450160C262C0F828E041
:101B300005D042F60041C4F20101884201D1616939
:101B4000016301214161002084F8461084F83E10B1
:101B500084F83F1084F8401084F8411084F8421053
:101B600084F8431084F8441084F8451084F83D103C
:101B700010BD000070470000002804BF012070471E
:101B800010B5044690F83D0028B9002084F83C00C8
:101B9000204600F05FF8242084F83D002068D4E956
:101BA0000212C36823F40053C360036923F4405353
:101BB0001A430261D4E904231143C268194341F274
:101BC0000C639A431143C1604169A26921F44071D9
:101BD000114343F60002C4F201029042416103D076
:101BE000FFF7B8F802E000BFFFF7C8F862681921F4
:101BF00048439100B0FBF1F048F21F51C5F2EB11E0
:101C0000A0FB01235A096FF0630302FB0300322398
:101C100003EB0010A0FB0101F02303EA511320683D
:101C200003EB0212C1F3431111448160016921F4F5
:101C300090410161416921F02A014161C16841F48B
:101C40000051C16000202021206484F83D1084F8F8
:101C50003E1010BD10B586B0006844F60001C4F215
:101C6000000188424FF00001CDE90411CDE90211D5
:101C70002ED043F60001C4F20101884259D141F24D
:101C80001800C4F20200016840F6000441F48041EB
:101C900001600168C4F2010401F4804101910199DD
:101CA000016841F004010160006802A900F004002D
:101CB000019001984FF400700290022003900320DD
:101CC00005902046FEF734FC4FF4806029E000BF09
:101CD00041F21800C4F20200416841F480214160E1
:101CE000416801F4802101910199016841F00801E6
:101CF0000160006802A900F00800019001984FF40B
:101D000080600290022003900320059040F60000BE
:101D1000C4F2010000F580642046FEF709FC4FF490
:101D2000006002900020CDE9030002A92046FEF7E2
:101D3000FFFB06B010BD00002DE9F04381B0044662
:101D400090F83D0020280DD10F4600294FF00100EA
:101D500000F092801646002A00F08E8094F83C0035
:101D6000012803D1022001B0BDE8F083012084F8EE
:101D70003C004FF0000921201D46C4F8409084F833
:101D80003D00FEF7DDFCA684E684A1688046B1F53F
:101D9000805F25D1206900281CBF38464F463E464B
:101DA000074684F83C90E08C00B3681C20D0002DDE
:101DB00066D120680BE000BF36F8021B00276FF3E6
:101DC0005F214160E18C0139E184E18C81B30168DC
:101DD000090675D5002FEFD017F8011BF1E700BFFA
:101DE000002684F83C90E08C0028DED120681FE0BB
:101DF000206802E00168090609D40168090606D4D2
:101E0000016809065CBF01685FEA0161F2D51FB194
:101E100017F8011B05E000BF36F8021B00276FF31F
:101E20005F214160E18C0139E184E18C0029E4D13A
:101E3000016849061CD4002D42D0691C0ED10168EE
:101E4000490615D4016849065CBF01685FEA416133
:101E50000ED401684906F2D50AE000BFFEF770FC17
:101E6000A0EB08012068A9422AD800684006F5D5F1
:101E7000202084F83D00002001B0BDE8F08300BFC1
:101E8000206800BF0168090608D4FEF759FCA0EBE2
:101E900008012068A942F5D912E000BF17B117F870
:101EA000011B04E036F8021B00276FF35F2141603D
:101EB000E18C0139E184E18C0029E3D1B8E700BF6E
:101EC000C16821F4D071C160416921F00101416113
:101ED000202084F83D0084F83E00002084F83C0077
:101EE000032001B0BDE8F083FEE70000B0B584B088
:101EF00040F2100042F20041C2F20000C4F20101BF
:101F000000244FF46022012504730475C261C0E906
:101F1000001484600561FEF70DFA002818BFFEF773
:101F200039F90220CDE9010540F21000C2F20000AB
:101F300001A90394FEF734F9002818BFFEF72AF927
:101F400004B0B0BD2DE9F04385B041F21800C4F2F1
:101F50000200016840F6004441F020010160016880
:101F6000C4F2010401F0200101910199016804F516
:101F7000806641F0100101600168002201F010014B
:101F80000191019901680F2541F004010160016888
:101F9000002701F0040101910199016841F0080155
:101FA000016000680F2100F00800019001983046A0
:101FB000FEF7C0FB204648F2F8010022FEF7BAFB0C
:101FC000019501AD4FF001084FF002093046294656
:101FD000CDE90287CDF81090FEF7AAFA4FF47C7095
:101FE000CDE90107304629460397FEF7A1FA0720FD
:101FF000CDE90107204629460397FEF799FA4FF4E9
:102000000040CDE9010820462946CDE90379FEF7D5
:102010008FFAF820CDE901080320049020462946D4
:102020000397FEF785FA05B0BDE8F08380B540F26E
:10203000400045F20041C2F20000C4F2000148F243
:10204000A06200234FF4804CC0F2010280E80E0031
:10205000C0E9033CC0E90533C0E90733FEF776FB6E
:10206000002808BF80BDBDE88040FEF793B800009F
:1020700070B59CB042F6004540F29400C4F20105F0
:102080000021C2F20000092241F61F431691CDE95A
:1020900014111191CDE90F11CDE90D11CDE90B11FD
:1020A000CDE90911CDE90711CDE90511CDE90311FC
:1020B000CDE90111C0E90052C0E90213C0E90411E1
:1020C0008161FFF7CFF8002818BFFEF763F84FF4DF
:1020D0008050139040F29400C2F2000013A9FFF761
:1020E000B3F9002818BFFEF755F840F29400C2F289
:1020F0000000FFF7ABFC002818BFFEF74BF840F2DA
:1021000094000024C2F2000010A9CDE91044FFF7AA
:102110005FF8002818BFFEF73DF86020CDE90904FC
:1021200040F29400C2F2000009A90022CDE90B445C
:10213000CDE90D440F94FFF761FB002818BFFEF7AF
:1021400029F840F29400C2F2000009A90422FFF726
:1021500055FB002818BFFEF71DF840F294044FF419
:102160000050C2F200040026069001A92046059600
:10217000CDE90366CDE901660896FFF703F800286C
:1021800018BFFEF707F820681A96A84202D01CB0C4
:1021900070BD00BF41F21800C4F20200016841F0B6
:1021A00008010160006818A900F00800179017984E
:1021B0004FF4C0401890022019901B90A5F50050D4
:1021C000FEF7B6F91CB070BD80B58CB040F2DC00F3
:1021D0000021C2F200004FF080424FF6FF73C0E9C9
:1021E00000210122CDE90011C0E9021301618161E2
:1021F000CDE90321CDE90521CDE90711CDE909217B
:102200000B9103A9FFF7EAF9002818BFFDF7C2FFF9
:1022100040F2DC00C2F200006946FEF7D9FF002858
:1022200018BFFDF7B7FF0CB080BD000080B58CB0C3
:1022300040F2241040F200420021C2F20000C4F239
:1022400000024FF6FF73C0E900210122CDE9001121
:10225000C0E9021301618161CDE90321CDE90521C6
:10226000CDE90711CDE909210B9103A9FFF7B6F9D3
:10227000002818BFFDF78EFF40F22410C2F20000C4
:102280006946FEF7A5FF002818BFFDF783FF0CB0D5
:1022900080BD000080B540F26C1043F60001C2F230
:1022A0000000C4F2010100234FF00C0C4FF4E132A6
:1022B00080E80E00C0E90333C0E905C3C361FFF73E
:1022C0005BFC002808BF80BDBDE88040FDF762BF11
:1022D00080B540F2B01044F60001C2F20000C4F232
:1022E000000100234FF00C0C4FF4E13280E80E00A7
:1022F000C0E90333C0E905C3C361FFF73DFC002813
:1023000008BF80BDBDE88040FDF744BFFEE7000088
:10231000FEE7000010B5B0200021002400F0CCF949
:102320000020002100F0C8F91020002100F0C4F9BD
:102330000020012100F0C0F9601C44B2B4F1FF3F5D
:10234000F6DCB1200021002400F0B6F900200021C5
:1023500000F0B2F91020002100F0AEF900200121B8
:1023600000F0AAF9601C44B2B4F1FF3FF6DCB220E1
:102370000021002400F0A0F90020002100F09CF9C9
:102380001020002100F098F90020012100F094F9BC
:10239000601C44B2B4F1FF3FF6DCB32000210024FE
:1023A00000F08AF90020002100F086F910200021B9
:1023B00000F082F90020012100F07EF9601C44B297
:1023C000B4F1FF3FF6DCB4200021002400F074F9E2
:1023D0000020002100F070F91020002100F06CF9BD
:1023E0000020012100F068F9601C44B2B4F1FF3F05
:1023F000F6DCB5200021002400F05EF90020002169
:1024000000F05AF91020002100F056F900200121B7
:1024100000F052F9601C44B2B4F1FF3FF6DCB62084
:102420000021002400F048F90020002100F044F9C8
:102430001020002100F040F90020012100F03CF9BB
:10244000601C44B2B4F1FF3FF6DCB7200021002449
:1024500000F032F90020002100F02EF910200021B8
:1024600000F02AF90020012100F026F9601C44B296
:10247000B4F1FF3FF6DC10BD10B540F60044C4F2E5
:102480000104204610210022FEF754F920461021B5
:102490000122FEF74FF9204640210022FEF74AF9BB
:1024A000AE20002100F008F90020002100F004F91E
:1024B0001020002100F000F94020002100F0FCF87D
:1024C0008120002100F0F8F8FF20002100F0F4F84E
:1024D000A120002100F0F0F8C820002100F0ECF865
:1024E000A620002100F0E8F8A820002100F0E4F880
:1024F0003F20002100F0E0F8D320002100F0DCF8BC
:102500000020002100F0D8F8D520002100F0D4F8F8
:102510008020002100F0D0F8D920002100F0CCF874
:10252000F120002100F0C8F8DA20002100F0C4F802
:102530001220002100F0C0F8DB20002100F0BCF8E0
:102540004020002100F0B8F88D20002100F0B4F800
:102550001420002100F0B0F82020002100F0ACF899
:102560000220002100F0A8F8A420002100F0A4F827
:10257000AF20002100F0A0F8FFF7CCFEB020002132
:1025800000F09AF81020002100F096F800200021B9
:10259000BDE8104000F090B82DE9F0470646A1F1E3
:1025A00050008846C0B20021A2F1200400F084F857
:1025B000300900F110094846002100F07DF806F0CE
:1025C0000F0A5046002100F077F8E1B242F66E1291
:1025D0000801C0F60002105C02EB0116012100F0B8
:1025E0006BF87078B778F4783579012100F064F8E9
:1025F0003846012100F060F82046012100F05CF827
:102600002846012100F058F87079012100F054F8B3
:10261000B079012100F050F8F079012100F04CF878
:10262000A8F14F00C0B2002100F046F84846002152
:1026300000F042F85046002100F03EF8307A0121C7
:1026400000F03AF8707A012100F036F8B07A0121F2
:1026500000F032F8F07A012100F02EF8307B0121F1
:1026600000F02AF8707B012100F026F8B07B0121F0
:1026700000F022F8F07B0121BDE8F04700F01CB823
:10268000F0B581B0144612789AB10D46064600277F
:10269000F0B2E9B2D2B2FFF77FFF0836F0B20137ED
:1026A0007828F8B288BF0235225C88BF0026002A4D
:1026B000EED101B0F0BD0000B0B540F60044C4F268
:1026C00001040A460546002920464FF0400118BF84
:1026D0000122FEF72FF8204608210022FEF72AF8F3
:1026E000EA0920462021FEF725F82046082101228C
:1026F000FEF720F8204608210022FEF71BF8C5F35C
:10270000801220462021FEF715F8204608210122DC
:10271000FEF710F8204608210022FEF70BF8C5F35B
:10272000401220462021FEF705F82046082101220C
:10273000FEF700F8204608210022FDF7FBFFC5F355
:10274000001220462021FDF7F5FF20460821012236
:10275000FDF7F0FF204608210022FDF7EBFFC5F34F
:10276000C00220462021FDF7E5FF20460821012276
:10277000FDF7E0FF204608210022FDF7DBFFC5F34F
:10278000800220462021FDF7D5FF204608210122A6
:10279000FDF7D0FF204608210022FDF7CBFFC5F34F
:1027A000400220462021FDF7C5FF204608210122D6
:1027B000FDF7C0FF204608210022FDF7BBFF05F012
:1027C000010220462021FDF7B5FF20460821012205
:1027D000BDE8B040FDF7AEBF704700007047000095
:1027E000FEF7AEB87047000001A000F08BB800BF44
:1027F000E58D81E4B880E59180000000FEE70000EF
:1028000080B582B0019040F26C10C2F2000001A9C4
:1028100001224FF6FF73FFF78FFA019802B080BDD7
:1028200096B0FEF79BF800240120CDE91144CDE9D4
:102830000F440C9010904FF4E0104FF480310225BB
:1028400015900CA80694CDE90444CDE90244CDE9E5
:102850000D14CDE91351FEF7A5FA28B1EFF310805E
:1028600072B600BFFEE700BF0F20CDE907054FF4A9
:102870008060CDE90A0407A802210994FEF78AF9CD
:1028800020B1EFF3108072B6FEE700BF0220019086
:102890004FF40040039001A8FEF7F6F820B1EFF3E3
:1028A000108072B6FEE700BFFFF74CFBFFF71EFB80
:1028B000FFF7BCFBFFF7DCFBFFF786FCFFF7B6FC7E
:1028C000FFF7E8FCFFF704FD40F29400C2F20000BD
:1028D000FEF776FDFFF7D0FD06A400BF0020002123
:1028E0002246FFF7CDFEFFF77FFF40F6B830FDF739
:1028F0000BFEF3E76664736768676866646866641E
:1029000068720000014A024900F013B8012800086B
:102910000000002002E008C8121F08C1002AFAD1F6
:1029200070477047002001E001C1121F002AFBD14F
:1029300070472DE9F04116460F460446002503E096
:102940003946B047641C6D1C20780028F8D1284611
:10295000BDE8F0810102000000000000000001025B
:102960000304060708090000000001020304000038
:102970000000000000000000000000000000000057
:1029800000F80000000000000033300000000010DC
:102990000C06100C0600000000000000000040C003
:1029A0007840C0784000043F04043F0404000070F5
:1029B00088FC08300000001820FF211E0000F008ED
:1029C000F000E018000000211C031E211E0000F092
:1029D0000888700000001E212324192721101016DA
:1029E0000E000000000000000000000000000000D9
:1029F00000E0180402000000000718204000000258
:102A00000418E000000000402018070000004040CB
:102A100080F0804040000202010F0102020000002D
:102A200000F0000000000101011F01010100000091
:102A300000000000000080B07000000000000000F6
:102A4000000000000000000101010101010100007F
:102A50000000000000000030300000000000000016
:102A6000000080601804006018060100000000E00B
:102A7000F0180818F0E0000F1F3020301F0F000082
:102A80001010F8F80000000020203F3F20200070C8
:102A900078080808F8F00030382C26233130003050
:102AA00038080888F8700018382121233E1C0000DF
:102AB00080C070F8F80000060725243F3F2400F886
:102AC000F888888808080019392020311F0E00E096
:102AD000F09888989000000F1F3120203F1F0018A9
:102AE000180888E878180000003E3F0100000070D8
:102AF000F8880888F870001C3E2321233E1C00F053
:102B0000F8080818F0E00001133222331F0F00000C
:102B100000C0C000000000000030300000000000D5
:102B20000080000000000000806000000000000045
:102B300080402010080000010204081020004040DE
:102B40004040404040000404040404040400000821
:102B500010204080000000201008040201000070D6
:102B600048080808F0000000003036010000C030BE
:102B7000C828E810E0000718272423140B000000E1
:102B8000C038E0000000203C23020227382008F86B
:102B9000888888700000203F202020110E00C0305F
:102BA000080808083800071820202010080008F836
:102BB00008080810E000203F202020100F0008F82F
:102BC0008888E8081000203F20202320180008F8FB
:102BD0008888E8081000203F200003000000C03073
:102BE00008080838000007182020221E020008F8F4
:102BF00008000008F808203F210101213F200008BB
:102C000008F8080800000020203F202000000000F5
:102C10000808F8080800C08080807F00000008F8DD
:102C200088C028180800203F20012638200008F816
:102C3000080000000000203F20202020300008F87D
:102C4000F800F8F80800203F003F003F200008F897
:102C500030C00008F808203F200007183F00E010AF
:102C600008080810E0000F10202020100F0008F8BE
:102C700008080808F000203F210101010000E010D1
:102C800008080810E0000F18242438504F0008F8F6
:102C9000888888887000203F2000030C3020007056
:102CA0008808080838000038202121221C00180854
:102CB00008F8080818000000203F2000000008F86D
:102CC00008000008F808001F202020201F000878B6
:102CD000880000C83808000007380E010000F80816
:102CE00000F80008F800033C0700073C0300081840
:102CF00068808068180820302C03032C30200838A6
:102D0000C800C83808000000203F2000000010085C
:102D10000808C838080020382621202018000000A4
:102D200000FE020202000000007F40404000000C54
:102D300030C000000000000000010638C0000002A2
:102D40000202FE000000004040407F000000000042
:102D50000402020204000000000000000000000065
:102D60000000000000008080808080808080000261
:102D7000020400000000000000000000000000004D
:102D80008080808000000019242222223F2008F841
:102D9000008080000000003F112020110E00000084
:102DA000008080800000000E112020201100000013
:102DB00000808088F800000E112020103F200000C5
:102DC000808080800000001F2222222213000080C9
:102DD00080F0888888180020203F20200000000014
:102DE000808080808000006B94949493600008F849
:102DF000008080800000203F210000203F200080D4
:102E00009898000000000020203F202000000000D3
:102E100000809898000000C08080807F000008F843
:102E2000000080808000203F24022D302000000818
:102E300008F8000000000020203F202000008080D3
:102E4000808080808000203F20003F20003F8080E5
:102E5000008080800000203F210000203F200000F3
:102E6000808080800000001F202020201F008080A4
:102E700000808000000080FFA12020110E000000D3
:102E8000008080808000000E112020A0FF808080C4
:102E900080008080800020203F2120000100000071
:102EA0008080808080000033242424241900008046
:102EB00080E0808000000000001F20200000808053
:102EC000000000808000001F202020103F20808014
:102ED00080000080808000010E30080601008080A4
:102EE0000080008080800F300C030C300F000080C9
:102EF0008000808080000020312E0E3120008080F4
:102F000080000080808080818E7018060100008023
:102F10008080808080000021302C22213000000041
:102F20000000807C020200000000003F40400000E2
:102F30000000FF00000000000000FF000000000291
:102F4000027C800000000040403F000000000006BE
:102F5000010102020404000000000000000002035E
:102F60000405060708090A0B0C0D0E0F10100000CF
:102F7000902F000800000020100000001429000815
:102F8000A02F000810000020E805000024290008F8
:102F90000000000001000000100000000024F40008
:0400000508000131BD
:00000001FF
